S01D000073616D6432315F31326269745F6D756C74696164632E737265634C
S1130000A82000207901000075010000750100009E
S113001000000000000000000000000000000000DC
S11300200000000000000000000000007501000056
S113003000000000000000007501000075010000D0
S113004075010000750100007501000075010000D4
S113005075010000750100007501000075010000C4
S113006075010000750100007501000075010000B4
S113007075010000750100007501000075010000A4
S11300807501000075010000750100007501000094
S11300907501000075010000750100007501000084
S11300A07501000075010000750100007501000074
S11300B00000000010B5064C2378002B07D1054B37
S11300C0002B02D0044800E000BF0123237010BDC0
S11300D0640000200000000000310000084B10B54F
S11300E0002B03D00749084800E000BF0748036815
S11300F0002B00D110BD064B002BFBD09847F9E72D
S11301000000000068000020003100000031000001
S11301100000000010B500210148024B984710BDB3
S1130120A0000020F103000070B5040004230200C5
S113013000210948094DA847002809DD6378227881
S11301409B18A380E378A2789B18E380002070BDFD
S113015001204042FBE7C046A00000201D0400002F
S113016010B5024B9847024B984710BD9503000009
S11301706D0D0000FEE70000F8B5234A234B9A42B8
S113018009D0224B204A03E0116819600433043279
S11301901F498B42F8D31F4B02E000221A6004333C
S11301A01D4A9342F9D31D4AFF211D4B8B43936093
S11301B0FD3990235B001B4AD1501B4AD378032599
S11301C0AB4302242343D370D3780C27BB430826C4
S11301D03343D370154B987B302290432022104335
S11301E09873997BB943314399739A7BAA43224309
S11301F09A730F4A516880230B4353600D4B984701
S11302000D4B9847FEE7C046003100000000002077
S11302106400002064000020A800002000ED00E03D
S113022000000000007000410050004100480041FF
S113023000400041591E0000CD0B0000F0B5C0265F
S1130240F60540237360144B144A9A62C0221206C6
S11302509A624620195C0125A94301242143C9B2AD
S113026019541338195C0F27B9432143C9B21954DF
S1130270802171600A4999629A6247215A5CAA43B3
S11302802243D2B25A541A5C38390A4010210A4324
S1130290D2B21A54F0BDC0460044004140000040B0
S11302A080000040044A116A80235B020B431362FE
S11302B0024A034B5A807047000400401E4000006D
S11302C0000C004010B5054B9847054B9847002299
S11302D004490548054B984710BDC046A5020000D7
S11302E03D02000000400042A0000020B9030000CD
S11302F030B50F4B5622995C0125A94301242143B3
S1130300C9B299543B20195C473A914302221143E4
S1130310C9B2195457215A5CAA432243D2B25A543F
S11303201A5C48390A4020210A43D2B21A5430BD1B
S113033000440041044A136A20210B431362034A18
S1130340034B5A807047C046000400401740000029
S1130350000C004010B5054B98470022044905489D
S1130360054B9847054B984710BDC0463503000020
S1130370001400429400002051060000F102000025
S113038010B50248024B984710BDC04610E000E08B
S1130390CD04000010B5044B9847044B9847044B18
S11303A09847044B984710BDF5080000C5020000AB
S11303B0550300008103000070B504000D000028FF
S11303C00DD0002909D0012039220649064B98474F
S11303D029002000054B984770BD0020F4E7002059
S11303E0F2E7C046942E0000C90600005908000038
S11303F070B504000D00431E9841C0B24E2204495A
S1130400044B984729002000034B9847002070BDF7
S1130410942E0000C906000091080000F8B5CE46ED
S1130420474680B506000D009046994600281AD02C
S1130430002A1AD04B46002B19D1002067221C49F0
S11304401C4FB847340030001B4B9847010006008E
S113045048461A4B984748424841C0B26922144959
S1130460B847002709E00020E8E70020E6E701207C
S1130470E4E7BF19BFB2B94515D92000104B98471E
S1130480290020000F4B98470028F9D029002000AC
S11304900D4B98474346D855012EEAD97B1C000AD8
S11304A04246D054E5E738000CBC90469946F8BD66
S11304B0942E0000C90600009F0800006D10000083
S11304C0C5080000BB080000D908000010B5024BA5
S11304D01860024B984710BD80000020810B00007B
S11304E010B5044B1C68044B984701002000034BD3
S11304F0984710BD80000020E70800008D0B000025
S113050070B504000D00160000280ED000290AD092
S1130510012034220649074B9847236832002900FA
S11305202000984770BD0020F3E70020F1E7C046A3
S1130530B02E0000C906000070B504000D001600BE
S113054000280ED000290AD001203D220649074B7D
S113055098476368320029002000984770BD002046
S1130560F3E70020F1E7C046B02E0000C906000002
S1130570F8B505000E001700002823D0002923D069
S1130580002A23D10020F1221149124B98472C0054
S113059008342000104B98470028F8D00025715DDE
S11305A020000E4B984720000B4B98470028FAD0A8
S11305B00135BD42F3D32000094B98470028FAD0F7
S11305C02800F8BD0020DEE70020DCE70120DAE7A0
S11305D0C42E0000C9060000F70A0000E70A000064
S11305E0010B0000F8B5CE46474680B5051E884687
S11305F091461FD000291FD0002A1FD10020862237
S113060052000F490F4B984700262C000834200055
S11306100D4B98470028F8D043469F1920000B4BF8
S11306209847387001364E45EFD330000CBC9046E5
S11306309946F8BD0020E2E70020E0E70120DEE76C
S1130640C42E0000C90600000D0B0000EF0A0000D4
S113065070B504000D00002814D0002910D001202A
S113066034220949094B9847200008302900084BD7
S11306709847002803D1074B6360074B236070BD84
S11306800020EDE70020EBE7C42E0000C9060000BF
S1130690A90A0000E50500007105000010B504007A
S11306A0431E9841C0B253220449054B9847200089
S11306B00830044B9847002010BDC046C42E0000EB
S11306C0C9060000D50A0000002800D100BE70470A
S11306D00300064A1268002A04D0044A1068C318AA
S11306E0136070470249014A1160F6E78400002054
S11306F0A820002001204042704780239B014B60CA
S11307000020704701207047002070470020704788
S113071010B50B4B984702000020002806D07F221A
S113072008490020084B9847002010BDC3001B1A3D
S11307309900064BCB5C9A42F7D00130C0B2ECE78B
S11307400D070000FC2E0000C9060000E02E00008A
S113075070B504000D003A4BC01843425841C0B272
S113076094223849384B9847384B1A68D2081202F9
S1130770E023DB001A4036490B6849684901DB0E67
S11307800B43FF210B401A43637EDB09FCD1237822
S11307909B0704D500232370637EDB09FCD101236E
S11307A02370637EDB09FCD12285EA00521B910091
S11307B0284B5B189A786270DA78A2701A79E27022
S11307C01A7C2275DA8AA2841A8BE284997E2A2200
S11307D0A154DB88A380637EDB09FCD1EB005B1BA7
S11307E09A001C4B9B18DB682361637EDB09FCD1F8
S11307F0EB005B1B9A00174B9B181B7A2372637EDA
S1130800DB09FCD1EB005B1B9A00124B9B185B8A43
S1130810A383637EDB09FCD1EB005B1B9A000D4BC9
S11308209B189B8A2384637EDB09FCD1EB005D1B50
S1130830AA00084B9B185B782370002070BDC0464B
S113084000C0FFBDFC2E0000C9060000246080002B
S113085020608000E02E000070B505000C00431EEF
S11308609841C0B2C5220649064B98472C60200027
S1130870054B984701002000044B984770BDC046C3
S1130880FC2E0000C90600001107000051070000FB
S11308900268137802210B43DBB2137070470268BD
S11308A0537EDB09FCD19288120903331340032BD6
S11308B001D0022070470120FCE70368187E012361
S11308C0184070470268137B02210B43DBB2137399
S11308D0537EDB09FCD170470268537EDB09FCD1EF
S11308E0508B80B27047C8239B00584383001B1869
S11308F05800704710B5064B5A685A60054B984724
S1130900054B9847054B9847FF20054B984710BD6A
S11309100040004145090000190B00005D0B000078
S113092025090000C3070AD5054B802252009A60AE
S1130930832252025A60024B5B78DB09FBD1704779
S1130940000C0040064B1A7AD2B21A725A7AD2B20A
S11309505A729A7AD2B29A72DA7AD2B2DA72704748
S113096000040040024B9C466044800AC0B27047B9
S113097000F8FFBD10B50B4B98470200002000287B
S113098006D0094A09490020094B9847002010BDA8
S113099083001B189900074BCB5C9A42F7D00130B7
S11309A0C0B2ECE7650900003A020000642F0000C1
S11309B0C9060000142F000070B50400384B984796
S11309C0E369DB071DD483001B189A00354B9B1881
S11309D05A681C231A40E3699B07FCD123689B07D0
S11309E009D5236802218B432360E3699B07FCD16B
S11309F0E3699B07FCD4012313432360E3699B074A
S1130A00FCD1E369DB07FCD483001B189A00254B57
S1130A109B185B682360E3699B07FCD183001B1868
S1130A209A00204B9B189B686360E3695B07FCD1C9
S1130A3083001B189A001B4B9B185B689A040BD409
S1130A40C022D201134207D183001B189A00154B10
S1130A509B189B89A38115E083001B189A001149F8
S1130A6089188A89A389D204D20C5B0B5B031343D4
S1130A70A3818B7B07221A40A3895203DB04DB0C7E
S1130A801343A381074A83001D18A9000D005118C0
S1130A90C97BA1735219127C3023E254002070BD2B
S1130AA075090000142F000070B505000C00431EEA
S1130AB09841C0B2B4220449044B98472C602000EA
S1130AC0034B984770BDC046642F0000C906000060
S1130AD0B90900000268136802210B431360D3694B
S1130AE09B07FCD17047036889B219857047036876
S1130AF0188DC0B270470368187E012318407047F0
S1130B0003681B7E5B0801201840704703681B7E46
S1130B109B080120184070470E4A116A090C136A99
S1130B209B0F9B0709040C4801400B4302210B4314
S1130B30136293690B439361137F1D310B40137749
S1130B40044BDB681B07FBD5024A136A80210B4365
S1130B5013627047000800400000FF0F024A9369C7
S1130B6002218B439361704700080040024B034A03
S1130B705A6005221A60704710E000E0FFFFFF0092
S1130B8010B5014B984710BD6D0B0000080E0BE02B
S1130B900B4B0C4858609860094B1B68DB03FBD572
S1130BA0094B9C4661441000421ED2B20028EFD18A
S1130BB0034B59609960024B1B68DB03FBD57047FC
S1130BC010E000E0FFFFFF00010000FFF0B5CE469B
S1130BD000B586B0224B9847224B984705E022483F
S1130BE0224B9847FA20224B984703A8214B984759
S1130BF00028F4D103AD0423E85E1F4B99469847BF
S1130C001E4C00221E4BA0471E4F1F4A1F4BB847C5
S1130C101F4EB04701900623E85EC8470022184BD8
S1130C20A047194A194BB847B047071C194E0198F9
S1130C30B04702000B0018480C4CA047381CB047C2
S1130C4002000B001548A0470423E95E1448A0479E
S1130C500623E95E1348A047FA20054B9847C1E7ED
S1130C606101000015010000B82F0000B11E000052
S1130C70E104000029010000E11B0000E11600006E
S1130C800000144079100000E17A14AE476110406E
S1130C90091D0000651C0000802F0000902F00003B
S1130CA0A02F0000AC2F000010B50B00002809D1C4
S1130CB011001800054B9847002800DB10BD0120E7
S1130CC04042FBE701204042F8E7C046250D000002
S1130CD010B50B000138022809D811001800054B83
S1130CE09847002800DB10BD01204042FBE70120AB
S1130CF04042F8E7490D000070B50600064D2B6828
S1130D0098680021054CA0472B6858680021A0472B
S1130D10034B1E6070BDC04600000020E51E0000AD
S1130D208800002010B50400054B1868002804D082
S1130D308AB22100034B984710BD0020FCE7C0464F
S1130D40880000203905000010B50400054B186820
S1130D50002804D08AB22100034B984710BD00201C
S1130D60FCE7C046880000200105000010B5044CD3
S1130D702000044B98472000034B984710BDC04601
S1130D80940000209D060000F90C00000022430896
S1130D908B4274D303098B425FD3030A8B4244D33F
S1130DA0030B8B4228D3030C8B420DD3FF22090281
S1130DB012BA030C8B4202D31212090265D0030B40
S1130DC08B4219D300E0090AC30B8B4201D3CB0336
S1130DD0C01A5241830B8B4201D38B03C01A524178
S1130DE0430B8B4201D34B03C01A5241030B8B427A
S1130DF001D30B03C01A5241C30A8B4201D3CB0265
S1130E00C01A5241830A8B4201D38B02C01A524149
S1130E10430A8B4201D34B02C01A5241030A8B424C
S1130E2001D30B02C01A5241CDD2C3098B4201D364
S1130E30CB01C01A524183098B4201D38B01C01AE2
S1130E40524143098B4201D34B01C01A5241030959
S1130E508B4201D30B01C01A5241C3088B4201D308
S1130E60CB00C01A524183088B4201D38B00C01AB5
S1130E70524143088B4201D34B00C01A5241411ADC
S1130E8000D20146524110467047FFE701B50020E9
S1130E9000F0F0F802BDC0460029F7D076E77047AD
S1130EA003460B437FD4002243088B4274D30309C7
S1130EB08B425FD3030A8B4244D3030B8B4228D368
S1130EC0030C8B420DD3FF22090212BA030C8B428E
S1130ED002D31212090265D0030B8B4219D300E02E
S1130EE0090AC30B8B4201D3CB03C01A5241830BB3
S1130EF08B4201D38B03C01A5241430B8B4201D363
S1130F004B03C01A5241030B8B4201D30B03C01A8B
S1130F105241C30A8B4201D3CB02C01A5241830A05
S1130F208B4201D38B02C01A5241430A8B4201D334
S1130F304B02C01A5241030A8B4201D30B02C01A5E
S1130F405241CDD2C3098B4201D3CB01C01A5241C5
S1130F5083098B4201D38B01C01A524143098B424E
S1130F6001D34B01C01A524103098B4201D30B0137
S1130F70C01A5241C3088B4201D3CB00C01A52415C
S1130F8083088B4201D38B00C01A524143088B4221
S1130F9001D34B00C01A5241411A00D201465241BA
S1130FA0104670475DE0CA0F00D04942031000D3D9
S1130FB04042534000229C4603098B422DD3030A2E
S1130FC08B4212D3FC22890112BA030A8B420CD33E
S1130FD0890192118B4208D3890192118B4204D367
S1130FE089013AD0921100E08909C3098B4201D3E7
S1130FF0CB01C01A524183098B4201D38B01C01A21
S1131000524143098B4201D34B01C01A5241030997
S11310108B4201D30B01C01A5241C3088B4201D346
S1131020CB00C01A524183088B4201D38B00C01AF3
S11310305241D9D243088B4201D34B00C01A5241CA
S1131040411A00D20146634652415B10104601D357
S11310504042002B00D54942704763465B1000D3E1
S1131060404201B5002000F005F802BD0029F8D087
S113107016E770477047C046F0B557464546DE460A
S11310804E46E0B54C000E0387B0834692461D00E1
S11310908046360B640DCF0F002C4FD06F4B9C4213
S11310A035D08023420F1B04F60013433343994683
S11310B0C30098466A4B00269C460023644403936D
S11310C02B031B0B9B466B00ED0F50465B0D0195EC
S11310D05ED0624A934253D05A46D1008022400FD8
S11310E0120402430A4393465246D1005C4A944692
S11310F0002263443800684084460290E41A164390
S11311000F2E00D9B4E0574BB6009B599F460300FD
S1131110334399466CD1002398460233082603933F
S1131120CEE7CB464146039A0197022A65D1019B3B
S11311304A4C9C460023002298466BE0030033434C
S113114099464ED0002E00D1BCE1300000F066FE7E
S113115003000B3B1C2B00DDACE11D22D31A5A46C5
S11311600100DA4008398E401300334399465B4648
S11311708B40984600233C4C0026241A03939FE797
S113118051465A46114329D1002293460232B1E70F
S1131190594601431ED05B46002B00D19EE15846C0
S11311A000F03CFE03000B3B1C2B00DD8FE1020032
S11311B05946083A91408B461D21CB1A5146D940D5
S11311C00B0059460B4351469B469140264B002247
S11311D01B1A8FE7002301229B468BE7514603220B
S11311E088E700239846013304260024039367E725
S11311F00323B14603930C2662E7032A00D15CE281
S1131200019B012A00D0E4E113409C460023002402
S11312100022984600211203130B0A0D12051A43EB
S11312202305124C40462240134362465B00D2071A
S11312305B081343190007B03CBC90469946A2468C
S1131240AB46F0BD002380229C4612039846034C13
S1131250E0E70023014C00229846DBE7FF0700008B
S113126001FCFFFFC82F00000DFCFFFFFFFF0F80F4
S1131270D94500D939E100D134E1002346464D4631
S11312809A46013C5B460A0E1B021A430B02170CDA
S1131290039313041B0C3900280090460193FFF7B5
S11312A075FD0200019B83465A432800390091468C
S11312B0FFF7F2FD350C09040D43A9450DD95B4632
S11312C04544013BA84500D93AE1A94500D837E196
S11312D002235B429C464544E3444B46EB1A3900E7
S11312E018000493FFF752FD019B050043433900A6
S11312F004989946FFF7D0FD330409041B0C0B43F3
S1131300994509D943446A1E984500D91AE199457B
S113131000D817E1023D43444A469B1A5A46120438
S11313202A4303999346100C0A0C914609045A4621
S1131330090C4E460D001204120C4543059151430D
S11313407243704352190E0CB218954203D980258A
S11313506D02AC466044150C09041204090C2818EB
S11313605218834200D2CEE000D1C8E01D1A534681
S11313709E1AB24592415242AB1A9A46984500D100
S113138017E139001800FFF701FD019B05004343F5
S1131390390050460493FFF77FFD04980B04310C89
S11313A01943884209D941446B1E884500D907E195
S11313B0884200D804E1023D4144049BCB1A180042
S11313C039000493FFF7E2FC019B82464343390052
S11313D004980193FFF760FD01980B043104090C94
S11313E0194388420DD953464144013B884500D9ED
S11313F0E8E0884200D8E5E002235B429C46414491
S1131400E244019B2D04CE1A51462943059D4F46C3
S11314102A000B04080C1B0C5A4345437B437843B6
S11314205B19170CFB189D4203D980256D02AC464D
S113143060441D0C12041B04120C28189B188642CD
S113144000D293E000D18EE001231943A04BE318AE
S1131450002B00DC99E04A0700D09EE05A46D201F6
S113146006D55A469B4B1A4080239346DB00E3186B
S1131470994A934268DD0123029A984C1A4000234A
S1131480944698460022C5E680224B461203134236
S11314900AD05B46134206D11A431203120BAC4620
S11314A088468E4CB6E64B461A431203120BBC46D2
S11314B08A4CAFE603005A46283B9A4000239146E3
S11314C0984657E6584600F0A9FC203040E6030051
S11314D05246283B9A400021934677E600F09EFC52
S11314E020305FE6884500D2C7E64B46DE075D083C
S11314F043465B081E434346DB079A46C2E6002583
S1131500924500D333E7039E5946B446E244B245BC
S1131510AD416D424544EB180139984507D29842D4
S113152000D97FE000D1BCE01D1A8B461FE7984527
S1131530FAD1039D5545F2D943468B461D1A16E749
S11315409B46CAE61500E7E65A46C90852070A430D
S11315505B0590465C0D5A460123029952021940DC
S1131560120B8C4656E6002B00D16FE746444A1E08
S1131570B04529D91100864200D065E7039A934209
S113158000D061E762E7012149420120C21A382AEA
S113159021DD029B03409C4638E60F220A40042AC0
S11315A000D15BE70A00111D9142924152429344DB
S11315B054E7474BE318002BE5DD01225242F2E7E2
S11315C01D00FAE69A461CE7B04239D86ED01100E5
S11315D03AE702933AE71F2A3CDC20239B1A0C00CB
S11315E05846994098404B1E99415B46D440D3409D
S11315F0204308431A00430709D00F230340042B58
S113160005D00100081D88429B415B42D218130299
S11316103AD50123029A01241A400023944698469D
S11316200022F7E5022149428C46039DE344AC467F
S1131630E244AA45AD416D424544ED182D1A96E6A3
S11316408A1E03994D008D428941494241447618CE
S113165003958FE71F204042C31A5846D840030021
S1131660202A28D040205D46821A954029434A1EEC
S113167091411943072300220B4009D00F23002274
S11316800B400800042BBDD1010053075202120B7A
S1131690C9081943012388460299002419408C463D
S11316A0B8E55245BED88B46002560E6039D9D42B1
S11316B0C6D3110062E70025D8E780225B461203F7
S11316C01A43019B1203120B9C468846034CA1E566
S11316D0FF030000FFFFFFFEFE070000FF070000FE
S11316E0F0B557464546DE464E46E0B50C039846EF
S11316F04E00230B87B0070092469B46760DCD0F14
S1131700002E6BD06D4B9E4235D080245B46420F39
S11317102404DB0014431C43C3009946684BA346CE
S11317209C46002300276644029343461C035A0048
S1131730DB0F5046240B520D984600D176E05F4BE8
S11317409A426DD08023410F1B040B435C49E40093
S11317508C461C43C300002062444146B6186940CD
S1131760721C0191944607430F2F00D9B0E0554AEB
S1131770BF00D25997465B460343994600D087E0A1
S113178000239B46023308270293CEE74246019288
S1131790022867D0032800D10EE2012800D062E1BC
S11317A0002300240022994601990140CDB2002172
S11317B012030B0D120B1B051343434A240513405C
S11317C01C436400ED0764082C434846210007B01D
S11317D03CBC90469946A246AB46F0BD03439946AD
S11317E04FD05B46002B00D189E1584600F016FB30
S11317F003000B3B1C2B00DD7AE11D22D31A3A00B7
S113180001005C46DA4008398C4013008F402343C2
S11318109B46B94600232D4E0027361A029384E7CF
S1131820534623432AD10024022096E753462343F8
S113183020D0002C00D157E1200000F0EFFA030083
S11318400B3B1C2B00DD49E11D21CB1A5146020044
S1131850D9405346083A944093400C431B4A121A09
S113186000207AE70125019B144C1D40002300222F
S113187099469CE70024002201206EE7534603208A
S11318806BE700239B4601330427002602934CE7B1
S1131890032381460C27029347E780220023002577
S11318A012039946054C82E75C464B4602986FE763
S11318B05C464B46019502986AE7C046FF07000064
S11318C001FCFFFF08300000FFFF0F800DFCFFFF4D
S11318D04A464946170C1A0C1B041B0C0804190031
S11318E0000C41431500884619007D437943039554
S11318F089462900150045434D44029545462D0C63
S1131900AA46029D5544A94506D98A468021490222
S11319108946CA4451460391290C0491414609045D
S11319202D04090C88462900250C24044144240C68
S11319300591210041438846210079438A46684342
S1131940414650448146080C48446F43824503D9BC
S11319508021490289464F44010C89463900494493
S1131960029141460F0404993F0C88460004C019B3
S113197080444146049159460F0C0904090C8846D9
S113198059438A4639005143894641464A435146A0
S1131990090C8B467B43D2185A44934203D98023C3
S11319A05B029B46D94451460904090C8A464146C8
S11319B061437C43130C12044B445244A1468A46AF
S11319C03C0041466C434D4351464D440F0C7D1938
S11319D0A94503D98021490288464444049F0399B8
S11319E0B84641448B46834580414142884651462E
S11319F008042F04000C3F18584602991018894611
S1131A00904292414F44BA46524299469346C24448
S1131A10D144CB448F42BF41C245894199459B4142
S1131A20934592417F4249422D0C52420F435B42FF
S1131A3013437F19FF185B463C19DB0D059A6402BA
S1131A401C43430213435D1EAB415A46C00D03437E
S1131A5052021343E20156D501205A0803401343AE
S1131A60E207134364085A48604400284DDD5A07CE
S1131A7009D00F221A40042A05D01A1D9A429B410C
S1131A805B42E4181300E20104D58020514AC000EF
S1131A9014406044504A904200DDE3E60125DB082F
S1131AA062071A436402019B9146220B4405640DAC
S1131AB01D407CE6802259461203114208D014428C
S1131AC006D122431203120B45469946434C6EE657
S1131AD05B461A431203120B404C68E6030054465B
S1131AE0283B9C400023B9E600F098F92030A6E694
S1131AF00300283B9F400023BB4699468AE600F03A
S1131B008DF9203074E6B446ADE701252A1A382A47
S1131B1006DD019B00241D4000230022994646E671
S1131B201F2A21DC20252000AD1A1E00AB40A8404E
S1131B30D6405D1EAB4130431843D440430709D01F
S1131B400F230340042B05D00300181D98429B412A
S1131B505B42E418230221D50125019B01241D4089
S1131B6000230022994622E61F2521006D42281AEF
S1131B70C1400800202A1DD05F35AA1A944023438F
S1131B805C1EA341072503431D400022002D09D0FC
S1131B900F2200241A401800042AD6D10300650736
S1131BA06402220BDB082B4301259946019B002488
S1131BB01D40FCE50024E2E78022012512032243B4
S1131BC001991203120B0D409946044CEFE5C046EF
S1131BD0FF030000FFFFFFFEFE070000FF070000F9
S1131BE070B5002830D0C317C4185C40C50F20005E
S1131BF000F014F9174B184A1B1AD21A1F2A18DDC1
S1131C00164AD21A9440002224035B05240B5B0D70
S1131C100021100024030A0D240B12052243104C4A
S1131C201B05224013435B00ED075B082B4319009F
S1131C3070BD210091400A000B21081AC4405B05C5
S1131C402403240B5B0DE3E700250023002400227A
S1131C50DEE7C0461E040000330400001304000045
S1131C60FFFF0F804100090E4B1C70B5DBB246022A
S1131C70750AC40F012B14DDE0239B006D07360B9E
S1131C80CB1800210A0D280012051C4D32435B05B8
S1131C902A405B0813435B00E4075B0823431900F5
S1131CA070BD002914D1002D1ED0280000F0B6F814
S1131CB00A281CDC0B232A001B1ADA400300153304
S1131CC09D400F4B12031B1A5B05160B5B0DD8E7E7
S1131CD0002D06D0320B802636036D071643094BC0
S1131CE0CFE7084B0026CCE700230026C9E7030012
S1131CF02A000B3B9A400025E3E7C046FFFF0F8014
S1131D0089030000FF070000F0B54C00640D0B03CD
S1131D10621C450F5B0A52052B43C90FC500520DC7
S1131D20012A28DD3A4AA618FE2E1BDC002E3EDDD1
S1131D3080010200501E82416D0F2A43DB001343D1
S1131D405A0704D00F221A40042A00D004338022F8
S1131D50D2041A405AD00136FF2E03D09B015B0AED
S1131D60F4B201E0FF2400235802E405400AC90745
S1131D7020430843F0BD002C07D01D43F2D080203F
S1131D80DB0080040343FF26DAE72B4303D005235B
S1131D90DB08FF2C03D05B025B0AE4B2E4E7002B10
S1131DA032D08020C00303435B025B0ADCE73200CD
S1131DB0173214DB80221E2712041343BF1B1F2F6C
S1131DC00FDC144A944664442A00A5402E00A34024
S1131DD0751EAE41FA40334313430026B0E7002496
S1131DE0D5E702225242961B1A00F240202F09D056
S1131DF0094884466444A3402B435D1EAB4100263E
S1131E0013439DE70023F7E70023ADE73400BFE762
S1131E1080FCFFFF82FCFFFFA2FCFFFF1C210123CB
S1131E201B04984201D3000C10391B0A984201D3B9
S1131E30000A08391B09984201D30009043902A297
S1131E40105C40187047C0460403020201010101FE
S1131E50000000000000000070B500260C4D0D4C81
S1131E60641BA410A64209D1002601F039F90A4DD9
S1131E700A4C641BA410A64205D170BDB300EB58F4
S1131E8098470136EEE7B300EB5898470136F2E77E
S1131E90EC300000EC300000EC300000F0300000CA
S1131EA003008218934200D1704719700133F9E797
S1131EB00FB40B4B13B51C68002C05D0A369002B81
S1131EC002D1200000F088FA05AB049AA168200032
S1131ED0019300F05DFC16BC08BC04B01847C04672
S1131EE0000000204A424A41802310B55200DB0022
S1131EF000F002F810BD0000F0B51D004F4B85B096
S1131F001E6804000F000092002E05D0B369002B58
S1131F1002D1300000F060FA494B9C4250D1746801
S1131F20009B022B05D0012B00D984E0002D00DAA0
S1131F3081E02100300000F0E1F9616B002908D054
S1131F4023004433994202D0300000F051FB0023B7
S1131F5063630023A3616360A3891B0603D521691E
S1131F60300000F045FBA389364A1340A381009B4F
S1131F70022B5AD003AB02AA2100300000F0C2FAAF
S1131F80A3891843A081002D24D1029D280000F0CC
S1131F9025FB0195071E42D1029B0193AB4239D127
S1131FA0012040420223A2891343A3810023A3609A
S1131FB023004733236023610123636105B0F0BD2F
S1131FC0214B9C4201D1B468AAE7204B9C42A7D183
S1131FD0F468A5E7002FD9D0B369002B02D13000F3
S1131FE000F0FAF9009B012B03D1A389009A1A434C
S1131FF0A2810820A389276027616561184018D051
S1132000012018400023984211D06D42A360A561BD
S11320101800D3E7019800F0E1FA071EC0D080232E
S1132020A289019D1343A381D6E70020BAE7A560E6
S1132030C4E7A060C2E701204042BFE700000020DF
S11320406C3000005CF3FFFF8C3000004C3000006B
S1132050F8B505000E001400002804D08369002B95
S113206001D100F0B9F9224B9C422DD16C68A369CF
S1132070A360A3891B0731D52369002B2ED02368C5
S11320802269F7B2981A6369F6B2984205DB210017
S1132090280000F033F9002826D1A3680130013B61
S11320A0A36023685A1C22601F706369984204D09D
S11320B0A389DB071AD50A2E18D12100280000F0C5
S11320C01DF9002812D00FE00A4B9C4201D1AC68E4
S11320D0CDE7094B9C42CAD1EC68C8E7210028002F
S11320E000F00CF80028CAD0012676423000F8BD72
S11320F06C3000008C3000004C300000364B70B562
S11321001D6806000C00002D05D0AB69002B02D120
S1132110280000F061F9314B9C420FD16C680C230C
S1132120E25E93B219072DD4D90611D409230120F4
S1132130336037331343A381404270BD284B9C4224
S113214001D1AC68EBE7274B9C42E8D1EC68E6E7A9
S11321505B0713D5616B002908D0230044339942EF
S113216002D0300000F044FA002363632422A389E0
S11321709343A38100236360236923600823A28916
S11321801343A3812369002B0BD1A0218022A389AF
S1132190890092000B40934203D02100300000F0EC
S11321A0D9F90123A289134011D00023A3606369E4
S11321B05B42A361002023698342BED10C23E25E0B
S11321C01306BAD540231343A3810138B5E7920718
S11321D000D46369A360EDE7000000206C300000C8
S11321E08C3000004C300000F7B58A8905000C00E3
S11321F0130760D44B68002B04DC0B6C002B01DC50
S11322000020FEBDE76A002FFAD000232E682B6061
S113221080235B011A4034D0606DA3895B0706D527
S11322206368C01A636B002B01D0236CC01A0200D0
S1132230216A00232800E76AB847A189431C06D114
S11322402B681D2B31D82C4ADA40D3072DD5002317
S1132250636023692360CB0405D5431C02D12B683A
S1132260002B00D16065616B2E600029C8D023006B
S11322704433994202D0280000F0BAF90020606388
S1132280BFE70123216A2800B847431CC5D12B6846
S1132290002BC2D01D2B01D0162B01D12E60AFE72D
S11322A04023A2891343A381ABE740230B430120BE
S11322B0A3814042A5E70F69002FA1D00B680F60EE
S11322C0DB1B01930023920700D14B69A360019BA0
S11322D0002B00DC94E7019B3A00216A2800A66ADF
S11322E0B047002803DC4023A2891343DFE7019BA6
S11322F03F181B1A0193EAE7010040200B6970B5EF
S113230005000C00002B01D1002070BD002804D072
S11323108369002B01D100F05FF80B4B9C4209D17B
S11323206C680C22A35E002BEED021002800FFF77E
S11323305BFFEAE7054B9C4201D1AC68F1E7044B33
S11323409C42EED1EC68ECE76C3000008C3000006D
S11323504C30000010B5024900F0B2F810BDC04680
S1132360FD220000002310B5040003604360836075
S113237081814366C281036143618361190008223C
S11323805C30FFF78DFD054B24626362044BA3624E
S1132390044BE362044B236310BDC046FD2C0000D4
S11323A0252D00005D2D0000892D000070B56825E5
S11323B04A1E55430E002900743100F063F9041ECF
S11323C008D000212A00016046600C30A060683209
S11323D0FFF766FD200070BD836913B50400002B70
S11323E028D18364C3640365134B144A1B68826257
S11323F00193984201D101238361200000F020F869
S11324006060200000F01CF8A060200000F018F8C4
S11324100022E06004216068FFF7A4FF0122092183
S1132420A068FFF79FFF02221221E068FFF79AFFDE
S11324300123A36113BDC0464830000055230000AA
S1132440F8B51E4B07001E68B369002B02D130009B
S1132450FFF7C2FF4836B4687368013B04D533689C
S1132460002B07D03668F6E70C22A55E002D0DD0B0
S11324706834F2E704213800FFF798FF3060002841
S1132480F0D10C2304003B602000F8BD01232000A0
S11324905B42E3810233A38165662560A5606560C4
S11324A025616561A561082229005C30FFF7F8FC0D
S11324B06563A563A564E564E6E7C04648300000AB
S11324C0F7B504000700002601914834002C01D11F
S11324D03000FEBD6368A5680093009B013B009338
S11324E001D52468F2E7AB89012B08D90E22AB5E33
S11324F0013304D029003800019B9847064368350E
S1132500EBE7000070B50E001D000E23C95E90B00D
S11325101400002907DA00232B60B3891B0611D4A9
S11325208023DB000FE001AA00F05AFC0028F2DB54
S1132530F022029B12021340054A9B185A4253414F
S11325402B60EDE740230020236010B070BDC0462F
S113255000E0FFFFF7B502268B8905000C0033422B
S113256006D0230047332360236101236361F7BD51
S113257001AB6A46FFF7C6FF00990700280000F088
S113258081F8002808D10C22A35E9A05EFD4032217
S113259093431E43A681E4E70F4BAB628023A289D9
S11325A020601343A381009B20616361019B002B86
S11325B00DD00E23E15E280000F024FC002806D094
S11325C00322A38993431A0001231343A381A089FF
S11325D03843A081CBE7C0465523000010B5034B18
S11325E00100186800F04EF810BDC046000000203D
S11325F070B50500002910D00C1F2368002B00DAE9
S1132600E418280000F02FFC1D4A1368002B05D1A4
S113261063601460280000F027FC70BDA34209D950
S1132620216860188342F3D118685B6841182160FF
S1132630EEE713005A68002A01D0A242F9D91968BA
S11326405818A0420BD12068091858181960824202
S1132650E0D110685268411819605A60DAE7A04264
S113266002D90C232B60D5E721686018824203D17C
S1132670106852684118216062605C60CAE7C04615
S11326808C000020032370B5CD1C9D430835060043
S11326900C2D1ED20C25A9421DD8300000F0E3FBFE
S11326A0254A14682100002919D1244C2368002BE1
S11326B003D1300000F010FB20602900300000F04E
S11326C00BFB431C2CD10C233000336000F0CCFBFB
S11326D003E0002DDFDA0C233360002070BD0B68AB
S11326E05B1B1AD40B2B03D90B60CC18256003E0B9
S11326F08C420ED163681360300000F0B5FB2000FB
S113270007220B30231D9043C31AE7D05A42E250EC
S1132710E4E74B6863600C00EEE70C004968C2E72D
S11327200323C41C9C43A042E0D0211A300000F0D3
S1132730D3FA431CDAD1C6E78C00002090000020B5
S1132740936810B5013B9360002B05DA9469A342AA
S113275008DBCBB20A2B05D01368581C1060197023
S1132760C8B210BDFFF774FCFBE7F8B506000F0014
S11327701400D518AC4201D1002007E021783A00BA
S11327803000FFF7DDFF0134431CF3D1F8BD000036
S1132790F0B59FB006000F0014000593002804D084
S11327A08369002B01D1FFF717FE7F4B9F425CD159
S11327B07768BB891B0762D53B69002B5FD0002378
S11327C006AD6B6120336B761033AB760294029CBA
S11327D02378002B5DD1029BE31A04930DD0049B54
S11327E0029A39003000FFF7C0FF431C00D1CCE04F
S11327F06A69049B944663446B612378002B00D17F
S1132800C3E00122002352426A6002A954325218E2
S113281001342B60EB60AB601370AB65217805224B
S1132820624800F015FB631C9C46002835D12968DA
S1132830CB0604D5532302AA20309B1818700B072B
S113284004D553232B2002AA9B18187023782A2B13
S11328502CD000200A21099B2278303A092A00D87A
S11328606BE000282AD0099328E0514B9F4201D104
S1132870B7689EE74F4B9F429BD1F76899E73900B1
S11328803000FFF73BFC002899D0012040421FB0E4
S1132890F0BD252B9FD001349AE7444B2968C01A18
S11328A0012383400B432B606446B7E7059B181D47
S11328B01B680590002B3ADB0993644623782E2B82
S11328C00BD16378621C2A2B3FD1059B02341A1D5D
S11328D01B680592002B35DB0793217803223648C9
S11328E000F0B6FA002807D0334B2A68C01A4023F8
S11328F0834013432B6001342178631C06222F4844
S11329000293297600F0A4FA002844D02C4B002B23
S11329102FD12968059B0722C90528D59B18934305
S1132920083305936B69039A9B186B614FE75B420D
S1132930EB6002230B432B60BFE74B4301349B182E
S1132940012089E701235B42C6E7002314000A2023
S11329501A006B6021783039092903D9002BBCD0C7
S11329600792BAE74243013452180123F2E70733CE
S1132970D5E705AB00933A00124B2900300000E084
S113298000BF0390039B0133CCD1BB895B0600D508
S11329907BE70B987BE705AB00933A00094B2900D2
S11329A0300000F07FF8ECE76C300000AC30000041
S11329B08C3000004C300000B2300000B630000013
S11329C0000000006B270000F7B5150001938A682A
S11329D00B6900900C00934200DA130022002B6074
S11329E043321278002A01D001332B6023689B06FE
S11329F002D52B6802332B60062723681F4027D09B
S1132A00230043331B785A1E93412268920630D424
S1132A102200019943320098089EB047431C25D0F8
S1132A20062320682A68E16803400025042B03D1AB
S1132A308D1AEB43DB171D40A3682269934201DD25
S1132A409B1AED180027BD4220D1002010E0013769
S1132A50E3682A689B1A9F42D2DA220001231932C2
S1132A6001990098089EB047431CF0D101204042D0
S1132A70FEBD3020E1184331087021005A1C453155
S1132A800978A218433202331170C1E722000123EE
S1132A901A3201990098089EB047431CE6D00137CA
S1132AA0D1E70000F0B58BB006920A0043320793D9
S1132AB0059004920A7E0C00109B6E2A00D18FE0D0
S1132AC017D8632A2CD008D8002A00D199E0582AB4
S1132AD054D026004236327029E0642A01D0692A93
S1132AE0F7D121681A68080623D5111D19601568E5
S1132AF025E0732A00D188E008D86F2A29D0702AEB
S1132B00E7D1202209680A43226003E0752A20D015
S1132B10782ADED122007821453211706C4A30E0E7
S1132B200E001A684236111D1960136833700123B0
S1132B3079E04906D9D5111D19600023D55E002D11
S1132B4003DA2D23049A6D421370624B0A27039310
S1132B502FE020681968050603D5081D18600D6864
S1132B6005E04006F9D50D68081D1860ADB2594B53
S1132B70082703936F2A18D00A2716E045310A70F4
S1132B80544A03921A682168101D186015680806D3
S1132B9022D5CB0702D52023194321601027002D0D
S1132BA003D1202322689A43226023000022433366
S1132BB01A706368A360002B5CDB042221689143D4
S1132BC02160002D58D1049E002B64D02600039B65
S1132BD042361B7833705EE04806DAD5ADB2D8E7EA
S1132BE009681A68080605D5111D19601368626919
S1132BF01A6006E04906F7D5111D19601368A28A08
S1132C001A800023049E236154E01A68111D196080
S1132C10166800216268300000F01AF9002801D01B
S1132C20801B6060636823610023049A137041E091
S1132C302369320006990598079DA847431C43D091
S1132C40236800259B070FD4099BE06898423DDA6E
S1132C5018003BE022000123193206990598079ECB
S1132C60B047431C30D00135E368099A9B1A9D4252
S1132C70F0DBE9E7002DA9D0049E28003900FEF717
S1132C800BF9039B013E5B5C280033703900FEF7AF
S1132C907DF8051EF1D1082F09D12368DB0706D57D
S1132CA063682269934202DC3023013E3370049B43
S1132CB09B1B2361079B09AA00932100069B05988F
S1132CC0FFF782FE431CB3D1012040420BB0F0BD9C
S1132CD0CE300000BD300000002370B5064C050066
S1132CE008002360FDF7F4FC431C03D12368002B88
S1132CF000D02B6070BDC046A400002070B50C004D
S1132D000E25495F00F0B2F8002803DB636D1B1841
S1132D10636570BDA389024A1340A381F9E7C046E5
S1132D20FFEFFFFFF8B51F008B8905000C001600AC
S1132D30DB0505D50E23C95E0022022300F074F8DA
S1132D40A389054A28001340A38132000E23E15EC3
S1132D503B0000F01FF8F8BDFFEFFFFF70B50C005B
S1132D600E25495F00F060F8A389421C03D1054A8F
S1132D701340A38170BD802252011343A381606577
S1132D80F8E7C046FFEFFFFF10B50E23C95E00F061
S1132D9015F810BD70B50500080011000022064C9E
S1132DA022601A00FDF794FF431C03D12368002B13
S1132DB000D02B6070BDC046A4000020002370B575
S1132DC0064C050008002360FDF794FC431C03D166
S1132DD02368002B00D02B6070BDC046A4000020E7
S1132DE0002370B5064C0500080011002360FDF7B0
S1132DF084FC431C03D12368002B00D02B6070BDDE
S1132E00A4000020002370B5064C050008002360D0
S1132E10FDF778FC431C03D12368002B00D02B6002
S1132E2070BDC046A400002070B505000800110064
S1132E300022064C22601A00FDF766FC431C03D1F5
S1132E402368002B00D02B6070BDC046A400002076
S1132E50C9B28218904201D10020704703788B4296
S1132E60FBD00130F6E770477047000070B50500ED
S1132E70080011000022064C22601A00FDF714FF1E
S1132E80431C03D12368002B00D02B6070BDC046C7
S1132E90A40000202E2E2F68616C2F7372632F689C
S1132EA0616C5F6164635F73796E632E630000001D
S1132EB02E2E2F68616C2F7372632F68616C5F69AB
S1132EC06F2E63002E2E2F68616C2F7372632F6830
S1132ED0616C5F75736172745F73796E632E6300E6
S1132EE000020200000000010000000006180100BA
S1132EF00000000000000000000000002E2E2F68DB
S1132F00706C2F6164632F68706C5F6164632E63FF
S1132F100000000003000000040010400000030053
S1132F2082E2000000000000000000000000000039
S1132F30000000000000000000000000000000008D
S1132F40000000000000000000000000000000007D
S1132F50000000000000000000000000000000006D
S1132F60000000002E2E2F68706C2F736572636F43
S1132F706D2F68706C5F736572636F6D2E630000F4
S1132F8050413036766F6C74733D25640D0A000031
S1132F9050413037766F6C73743D25640D0A000020
S1132FA0504130363D253033640D0A0050413037EE
S1132FB03D253033640D0A004F6B756D612042610D
S1132FC07361726973697A00701200005212000012
S1132FD00C1200002A1100000C1200004412000020
S1132FE00C1200002A1100005212000052120000BC
S1132FF0441200002A1100002211000022110000D6
S11330002211000088140000D0180000901700005E
S1133010901700008C170000A8180000A8180000E2
S11330209A1800008C170000A81800009A180000D5
S1133030A81800008C170000B0180000B018000099
S1133040B0180000B41A00000400002000000000C2
S1133050000000000000000000000000000000006C
S1133060000000000000000000000000000000005C
S1133070000000000000000000000000000000004C
S1133080000000000000000000000000000000003C
S1133090000000000000000000000000000000002C
S11330A0000000000000000000000000232D302B71
S11330B02000686C4C006566674546470030313235
S11330C0333435363738394142434445460030318C
S11330D032333435363738396162636465660000EB
S11330E0F8B5C046F8BC08BC9E467047DD00000039
S11330F0F8B5C046F8BC08BC9E467047B500000051
S113310004000020000000006C3000008C3000003F
S11331104C3000000000000000000000000000002F
S1133120000000000000000000000000000000009B
S1133130000000000000000000000000000000008B
S1133140000000000000000000000000000000007B
S1133150000000000000000000000000000000006B
S10731600000000067
S9030000FC
